{
  "contractName": "LedgerChannel",
  "abi": [
    {
      "constant": true,
      "inputs": [
        {
          "name": "",
          "type": "bytes32"
        }
      ],
      "name": "virtualChannels",
      "outputs": [
        {
          "name": "isClose",
          "type": "bool"
        },
        {
          "name": "isInSettlementState",
          "type": "bool"
        },
        {
          "name": "sequence",
          "type": "uint256"
        },
        {
          "name": "challenger",
          "type": "address"
        },
        {
          "name": "updateVCtimeout",
          "type": "uint256"
        },
        {
          "name": "partyA",
          "type": "address"
        },
        {
          "name": "partyB",
          "type": "address"
        },
        {
          "name": "partyI",
          "type": "address"
        },
        {
          "name": "balanceA",
          "type": "uint256"
        },
        {
          "name": "balanceB",
          "type": "uint256"
        }
      ],
      "payable": false,
      "stateMutability": "view",
      "type": "function"
    },
    {
      "constant": true,
      "inputs": [],
      "name": "numChannels",
      "outputs": [
        {
          "name": "",
          "type": "uint256"
        }
      ],
      "payable": false,
      "stateMutability": "view",
      "type": "function"
    },
    {
      "constant": true,
      "inputs": [],
      "name": "confirmTime",
      "outputs": [
        {
          "name": "",
          "type": "uint256"
        }
      ],
      "payable": false,
      "stateMutability": "view",
      "type": "function"
    },
    {
      "constant": true,
      "inputs": [],
      "name": "NAME",
      "outputs": [
        {
          "name": "",
          "type": "string"
        }
      ],
      "payable": false,
      "stateMutability": "view",
      "type": "function"
    },
    {
      "constant": true,
      "inputs": [
        {
          "name": "",
          "type": "bytes32"
        }
      ],
      "name": "Channels",
      "outputs": [
        {
          "name": "partyA",
          "type": "address"
        },
        {
          "name": "partyI",
          "type": "address"
        },
        {
          "name": "balanceA",
          "type": "uint256"
        },
        {
          "name": "balanceI",
          "type": "uint256"
        },
        {
          "name": "sequence",
          "type": "uint256"
        },
        {
          "name": "stateHash",
          "type": "bytes32"
        },
        {
          "name": "VCrootHash",
          "type": "bytes32"
        },
        {
          "name": "LCopenTimeout",
          "type": "uint256"
        },
        {
          "name": "updateLCtimeout",
          "type": "uint256"
        },
        {
          "name": "isOpen",
          "type": "bool"
        },
        {
          "name": "isUpdateLCSettling",
          "type": "bool"
        },
        {
          "name": "numOpenVC",
          "type": "uint256"
        }
      ],
      "payable": false,
      "stateMutability": "view",
      "type": "function"
    },
    {
      "constant": true,
      "inputs": [],
      "name": "VERSION",
      "outputs": [
        {
          "name": "",
          "type": "string"
        }
      ],
      "payable": false,
      "stateMutability": "view",
      "type": "function"
    },
    {
      "anonymous": false,
      "inputs": [
        {
          "indexed": true,
          "name": "channelId",
          "type": "bytes32"
        },
        {
          "indexed": true,
          "name": "partyA",
          "type": "address"
        },
        {
          "indexed": true,
          "name": "partyI",
          "type": "address"
        },
        {
          "indexed": false,
          "name": "balanceA",
          "type": "uint256"
        }
      ],
      "name": "DidLCOpen",
      "type": "event"
    },
    {
      "anonymous": false,
      "inputs": [
        {
          "indexed": true,
          "name": "channelId",
          "type": "bytes32"
        },
        {
          "indexed": false,
          "name": "balanceI",
          "type": "uint256"
        }
      ],
      "name": "DidLCJoin",
      "type": "event"
    },
    {
      "anonymous": false,
      "inputs": [
        {
          "indexed": true,
          "name": "channelId",
          "type": "bytes32"
        },
        {
          "indexed": true,
          "name": "recipient",
          "type": "address"
        },
        {
          "indexed": false,
          "name": "deposit",
          "type": "uint256"
        }
      ],
      "name": "DidLCDeposit",
      "type": "event"
    },
    {
      "anonymous": false,
      "inputs": [
        {
          "indexed": true,
          "name": "channelId",
          "type": "bytes32"
        },
        {
          "indexed": false,
          "name": "sequence",
          "type": "uint256"
        },
        {
          "indexed": false,
          "name": "numOpenVc",
          "type": "uint256"
        },
        {
          "indexed": false,
          "name": "balanceA",
          "type": "uint256"
        },
        {
          "indexed": false,
          "name": "balanceI",
          "type": "uint256"
        },
        {
          "indexed": false,
          "name": "vcRoot",
          "type": "bytes32"
        }
      ],
      "name": "DidLCUpdateState",
      "type": "event"
    },
    {
      "anonymous": false,
      "inputs": [
        {
          "indexed": true,
          "name": "channelId",
          "type": "bytes32"
        },
        {
          "indexed": false,
          "name": "balanceA",
          "type": "uint256"
        },
        {
          "indexed": false,
          "name": "balanceI",
          "type": "uint256"
        }
      ],
      "name": "DidLCClose",
      "type": "event"
    },
    {
      "anonymous": false,
      "inputs": [
        {
          "indexed": true,
          "name": "lcId",
          "type": "bytes32"
        },
        {
          "indexed": true,
          "name": "vcId",
          "type": "bytes32"
        },
        {
          "indexed": false,
          "name": "proof",
          "type": "bytes"
        },
        {
          "indexed": false,
          "name": "sequence",
          "type": "uint256"
        },
        {
          "indexed": false,
          "name": "partyA",
          "type": "address"
        },
        {
          "indexed": false,
          "name": "partyB",
          "type": "address"
        },
        {
          "indexed": false,
          "name": "balanceA",
          "type": "uint256"
        },
        {
          "indexed": false,
          "name": "balanceB",
          "type": "uint256"
        }
      ],
      "name": "DidVCInit",
      "type": "event"
    },
    {
      "anonymous": false,
      "inputs": [
        {
          "indexed": true,
          "name": "lcId",
          "type": "bytes32"
        },
        {
          "indexed": true,
          "name": "vcId",
          "type": "bytes32"
        },
        {
          "indexed": false,
          "name": "updateSeq",
          "type": "uint256"
        },
        {
          "indexed": false,
          "name": "partyA",
          "type": "address"
        },
        {
          "indexed": false,
          "name": "partyB",
          "type": "address"
        },
        {
          "indexed": false,
          "name": "updateBalA",
          "type": "uint256"
        },
        {
          "indexed": false,
          "name": "updateBalB",
          "type": "uint256"
        },
        {
          "indexed": false,
          "name": "challenger",
          "type": "address"
        }
      ],
      "name": "DidVCSettle",
      "type": "event"
    },
    {
      "anonymous": false,
      "inputs": [
        {
          "indexed": true,
          "name": "lcId",
          "type": "bytes32"
        },
        {
          "indexed": true,
          "name": "vcId",
          "type": "bytes32"
        },
        {
          "indexed": false,
          "name": "balanceA",
          "type": "uint256"
        },
        {
          "indexed": false,
          "name": "balanceB",
          "type": "uint256"
        }
      ],
      "name": "DidVCClose",
      "type": "event"
    },
    {
      "constant": false,
      "inputs": [
        {
          "name": "_lcID",
          "type": "bytes32"
        },
        {
          "name": "_partyI",
          "type": "address"
        }
      ],
      "name": "createChannel",
      "outputs": [],
      "payable": true,
      "stateMutability": "payable",
      "type": "function"
    },
    {
      "constant": false,
      "inputs": [
        {
          "name": "_lcID",
          "type": "bytes32"
        }
      ],
      "name": "LCOpenTimeout",
      "outputs": [],
      "payable": false,
      "stateMutability": "nonpayable",
      "type": "function"
    },
    {
      "constant": false,
      "inputs": [
        {
          "name": "_lcID",
          "type": "bytes32"
        }
      ],
      "name": "joinChannel",
      "outputs": [],
      "payable": true,
      "stateMutability": "payable",
      "type": "function"
    },
    {
      "constant": false,
      "inputs": [
        {
          "name": "_lcID",
          "type": "bytes32"
        },
        {
          "name": "recipient",
          "type": "address"
        }
      ],
      "name": "deposit",
      "outputs": [],
      "payable": true,
      "stateMutability": "payable",
      "type": "function"
    },
    {
      "constant": false,
      "inputs": [
        {
          "name": "_lcID",
          "type": "bytes32"
        },
        {
          "name": "_sequence",
          "type": "uint256"
        },
        {
          "name": "_balanceA",
          "type": "uint256"
        },
        {
          "name": "_balanceI",
          "type": "uint256"
        },
        {
          "name": "_sigA",
          "type": "string"
        },
        {
          "name": "_sigI",
          "type": "string"
        }
      ],
      "name": "consensusCloseChannel",
      "outputs": [],
      "payable": false,
      "stateMutability": "nonpayable",
      "type": "function"
    },
    {
      "constant": false,
      "inputs": [
        {
          "name": "_lcID",
          "type": "bytes32"
        },
        {
          "name": "_sequence",
          "type": "uint256"
        },
        {
          "name": "_numOpenVc",
          "type": "uint256"
        },
        {
          "name": "_balanceA",
          "type": "uint256"
        },
        {
          "name": "_balanceI",
          "type": "uint256"
        },
        {
          "name": "_VCroot",
          "type": "bytes32"
        },
        {
          "name": "_sigA",
          "type": "string"
        },
        {
          "name": "_sigI",
          "type": "string"
        }
      ],
      "name": "updateLCstate",
      "outputs": [],
      "payable": false,
      "stateMutability": "nonpayable",
      "type": "function"
    },
    {
      "constant": false,
      "inputs": [
        {
          "name": "_lcID",
          "type": "bytes32"
        },
        {
          "name": "_vcID",
          "type": "bytes32"
        },
        {
          "name": "_proof",
          "type": "bytes"
        },
        {
          "name": "_sequence",
          "type": "uint256"
        },
        {
          "name": "_partyA",
          "type": "address"
        },
        {
          "name": "_partyB",
          "type": "address"
        },
        {
          "name": "_balanceA",
          "type": "uint256"
        },
        {
          "name": "_balanceB",
          "type": "uint256"
        },
        {
          "name": "sigA",
          "type": "string"
        }
      ],
      "name": "initVCstate",
      "outputs": [],
      "payable": false,
      "stateMutability": "nonpayable",
      "type": "function"
    },
    {
      "constant": false,
      "inputs": [
        {
          "name": "_lcID",
          "type": "bytes32"
        },
        {
          "name": "_vcID",
          "type": "bytes32"
        },
        {
          "name": "updateSeq",
          "type": "uint256"
        },
        {
          "name": "_partyA",
          "type": "address"
        },
        {
          "name": "_partyB",
          "type": "address"
        },
        {
          "name": "updateBalA",
          "type": "uint256"
        },
        {
          "name": "updateBalB",
          "type": "uint256"
        },
        {
          "name": "sigA",
          "type": "string"
        }
      ],
      "name": "settleVC",
      "outputs": [],
      "payable": false,
      "stateMutability": "nonpayable",
      "type": "function"
    },
    {
      "constant": false,
      "inputs": [
        {
          "name": "_lcID",
          "type": "bytes32"
        },
        {
          "name": "_vcID",
          "type": "bytes32"
        }
      ],
      "name": "closeVirtualChannel",
      "outputs": [],
      "payable": false,
      "stateMutability": "nonpayable",
      "type": "function"
    },
    {
      "constant": false,
      "inputs": [
        {
          "name": "_lcID",
          "type": "bytes32"
        }
      ],
      "name": "byzantineCloseChannel",
      "outputs": [],
      "payable": false,
      "stateMutability": "nonpayable",
      "type": "function"
    },
    {
      "constant": false,
      "inputs": [
        {
          "name": "lcId",
          "type": "bytes32"
        },
        {
          "name": "vcId",
          "type": "bytes32"
        },
        {
          "name": "updateSeq",
          "type": "uint256"
        },
        {
          "name": "partyA",
          "type": "address"
        },
        {
          "name": "partyB",
          "type": "address"
        },
        {
          "name": "updateBalA",
          "type": "uint256"
        },
        {
          "name": "updateBalB",
          "type": "uint256"
        },
        {
          "name": "challenger",
          "type": "address"
        }
      ],
      "name": "testEvents",
      "outputs": [],
      "payable": false,
      "stateMutability": "nonpayable",
      "type": "function"
    }
  ],
  "bytecode": "0x608060405260008055600060015534801561001957600080fd5b50613c27806100296000396000f3006080604052600436106100f0576000357c0100000000000000000000000000000000000000000000000000000000900463ffffffff1680622e1d7e146100f5578063126a8ec014610126578063169401251461016a57806336a84fe7146102a65780635f8862531461038157806365dd43eb14610464578063901686d01461048f57806398bd5663146105b8578063a3f4df7e146105e3578063a496078014610673578063afe42f9e14610766578063b6f5a74614610823578063ce32957014610847578063cec4c85514610878578063d32fc05a146108bc578063fdb04023146109be578063ffa1ad74146109fd575b600080fd5b34801561010157600080fd5b506101246004803603810190808035600019169060200190929190505050610a8d565b005b6101686004803603810190808035600019169060200190929190803573ffffffffffffffffffffffffffffffffffffffff169060200190929190505050610d44565b005b34801561017657600080fd5b5061019960048036038101908080356000191690602001909291905050506110cc565b604051808b1515151581526020018a1515151581526020018981526020018873ffffffffffffffffffffffffffffffffffffffff1673ffffffffffffffffffffffffffffffffffffffff1681526020018781526020018673ffffffffffffffffffffffffffffffffffffffff1673ffffffffffffffffffffffffffffffffffffffff1681526020018573ffffffffffffffffffffffffffffffffffffffff1673ffffffffffffffffffffffffffffffffffffffff1681526020018473ffffffffffffffffffffffffffffffffffffffff1673ffffffffffffffffffffffffffffffffffffffff1681526020018381526020018281526020019a505050505050505050505060405180910390f35b3480156102b257600080fd5b5061037f6004803603810190808035600019169060200190929190803590602001909291908035906020019092919080359060200190929190803590602001908201803590602001908080601f0160208091040260200160405190810160405280939291908181526020018383808284378201915050505050509192919290803590602001908201803590602001908080601f01602080910402602001604051908101604052809392919081815260200183838082843782019150505050505091929192905050506111ba565b005b34801561038d57600080fd5b506104626004803603810190808035600019169060200190929190803560001916906020019092919080359060200190929190803573ffffffffffffffffffffffffffffffffffffffff169060200190929190803573ffffffffffffffffffffffffffffffffffffffff1690602001909291908035906020019092919080359060200190929190803590602001908201803590602001908080601f016020809104026020016040519081016040528093929190818152602001838380828437820191505050505050919291929050505061188e565b005b34801561047057600080fd5b50610479611ebc565b6040518082815260200191505060405180910390f35b34801561049b57600080fd5b506105b660048036038101908080356000191690602001909291908035600019169060200190929190803590602001908201803590602001908080601f016020809104026020016040519081016040528093929190818152602001838380828437820191505050505050919291929080359060200190929190803573ffffffffffffffffffffffffffffffffffffffff169060200190929190803573ffffffffffffffffffffffffffffffffffffffff1690602001909291908035906020019092919080359060200190929190803590602001908201803590602001908080601f0160208091040260200160405190810160405280939291908181526020018383808284378201915050505050509192919290505050611ec2565b005b3480156105c457600080fd5b506105cd612578565b6040518082815260200191505060405180910390f35b3480156105ef57600080fd5b506105f861257e565b6040518080602001828103825283818151815260200191508051906020019080838360005b8381101561063857808201518184015260208101905061061d565b50505050905090810190601f1680156106655780820380516001836020036101000a031916815260200191505b509250505060405180910390f35b34801561067f57600080fd5b506107646004803603810190808035600019169060200190929190803590602001909291908035906020019092919080359060200190929190803590602001909291908035600019169060200190929190803590602001908201803590602001908080601f0160208091040260200160405190810160405280939291908181526020018383808284378201915050505050509192919290803590602001908201803590602001908080601f01602080910402602001604051908101604052809392919081815260200183838082843782019150505050505091929192905050506125b7565b005b34801561077257600080fd5b506108216004803603810190808035600019169060200190929190803560001916906020019092919080359060200190929190803573ffffffffffffffffffffffffffffffffffffffff169060200190929190803573ffffffffffffffffffffffffffffffffffffffff1690602001909291908035906020019092919080359060200190929190803573ffffffffffffffffffffffffffffffffffffffff169060200190929190505050612c66565b005b6108456004803603810190808035600019169060200190929190505050612d5d565b005b34801561085357600080fd5b506108766004803603810190808035600019169060200190929190505050612ebe565b005b6108ba6004803603810190808035600019169060200190929190803573ffffffffffffffffffffffffffffffffffffffff169060200190929190505050613153565b005b3480156108c857600080fd5b506108eb60048036038101908080356000191690602001909291905050506134a1565b604051808d73ffffffffffffffffffffffffffffffffffffffff1673ffffffffffffffffffffffffffffffffffffffff1681526020018c73ffffffffffffffffffffffffffffffffffffffff1673ffffffffffffffffffffffffffffffffffffffff1681526020018b81526020018a81526020018981526020018860001916600019168152602001876000191660001916815260200186815260200185815260200184151515158152602001831515151581526020018281526020019c5050505050505050505050505060405180910390f35b3480156109ca57600080fd5b506109fb6004803603810190808035600019169060200190929190803560001916906020019092919050505061355b565b005b348015610a0957600080fd5b50610a12613a34565b6040518080602001828103825283818151815260200191508051906020019080838360005b83811015610a52578082015181840152602081019050610a37565b50505050905090810190601f168015610a7f5780820380516001836020036101000a031916815260200191505b509250505060405180910390f35b60036000826000191660001916815260200190815260200160002060000160009054906101000a900473ffffffffffffffffffffffffffffffffffffffff1673ffffffffffffffffffffffffffffffffffffffff163373ffffffffffffffffffffffffffffffffffffffff16148015610b3557506000151560036000836000191660001916815260200190815260200160002060090160009054906101000a900460ff161515145b1515610b4057600080fd5b60036000826000191660001916815260200190815260200160002060070154421115610d415760036000826000191660001916815260200190815260200160002060000160009054906101000a900473ffffffffffffffffffffffffffffffffffffffff1673ffffffffffffffffffffffffffffffffffffffff166108fc600360008460001916600019168152602001908152602001600020600201549081150290604051600060405180830381858888f19350505050158015610c08573d6000803e3d6000fd5b50600360008260001916600019168152602001908152602001600020600080820160006101000a81549073ffffffffffffffffffffffffffffffffffffffff02191690556001820160006101000a81549073ffffffffffffffffffffffffffffffffffffffff021916905560028201600090556003820160009055600482016000905560058201600090556006820160009055600782016000905560088201600090556009820160006101000a81549060ff02191690556009820160016101000a81549060ff0219169055600a820160009055505080600019167fdd7bdb2058a8a82d09caffc5e510ecc0742535eb4c1dee30dc9e7ac979bc0bde600360008460001916600019168152602001908152602001600020600201546000604051808381526020018281526020019250505060405180910390a25b50565b60008173ffffffffffffffffffffffffffffffffffffffff1614151515610df9576040517f08c379a00000000000000000000000000000000000000000000000000000000081526004018080602001828103825260298152602001807f4e6f2070617274794920616464726573732070726f766964656420746f204c4381526020017f206372656174696f6e000000000000000000000000000000000000000000000081525060400191505060405180910390fd5b6000151560036000846000191660001916815260200190815260200160002060090160009054906101000a900460ff161515141515610ea0576040517f08c379a00000000000000000000000000000000000000000000000000000000081526004018080602001828103825260148152602001807f4368616e6e656c20616c7265616479206f70656e00000000000000000000000081525060200191505060405180910390fd5b600060036000846000191660001916815260200190815260200160002060040154141515610f36576040517f08c379a000000000000000000000000000000000000000000000000000000000815260040180806020018281038252601d8152602001807f4368616e6e656c2068617320616c7265616479206265656e207573656400000081525060200191505060405180910390fd5b3360036000846000191660001916815260200190815260200160002060000160006101000a81548173ffffffffffffffffffffffffffffffffffffffff021916908373ffffffffffffffffffffffffffffffffffffffff1602179055508060036000846000191660001916815260200190815260200160002060010160006101000a81548173ffffffffffffffffffffffffffffffffffffffff021916908373ffffffffffffffffffffffffffffffffffffffff16021790555034600360008460001916600019168152602001908152602001600020600201819055506000600360008460001916600019168152602001908152602001600020600401819055506000544201600360008460001916600019168152602001908152602001600020600701819055508073ffffffffffffffffffffffffffffffffffffffff163373ffffffffffffffffffffffffffffffffffffffff1683600019167f68126d20cacc996115635674c7f52e21d4899bec2433229fea94abccff19f245346040518082815260200191505060405180910390a45050565b60026020528060005260406000206000915090508060000160009054906101000a900460ff16908060000160019054906101000a900460ff16908060010154908060020160009054906101000a900473ffffffffffffffffffffffffffffffffffffffff16908060030154908060040160009054906101000a900473ffffffffffffffffffffffffffffffffffffffff16908060050160009054906101000a900473ffffffffffffffffffffffffffffffffffffffff16908060060160009054906101000a900473ffffffffffffffffffffffffffffffffffffffff1690806007015490806008015490508a565b600085600360008960001916600019168152602001908152602001600020600401541015156111e857600080fd5b600186600080600102600360008c6000191660001916815260200190815260200160002060000160009054906101000a900473ffffffffffffffffffffffffffffffffffffffff16600360008d6000191660001916815260200190815260200160002060010160009054906101000a900473ffffffffffffffffffffffffffffffffffffffff168a8a6040516020018089151515157f010000000000000000000000000000000000000000000000000000000000000002815260010188815260200187815260200186600019166000191681526020018573ffffffffffffffffffffffffffffffffffffffff1673ffffffffffffffffffffffffffffffffffffffff166c010000000000000000000000000281526014018473ffffffffffffffffffffffffffffffffffffffff1673ffffffffffffffffffffffffffffffffffffffff166c01000000000000000000000000028152601401838152602001828152602001985050505050505050506040516020818303038152906040526040518082805190602001908083835b60208310151561139a5780518252602082019150602081019050602083039250611375565b6001836020036101000a0380198251168184511680821785525050505050509050019150506040518091039020905073__ECTools_______________________________63dca9541982856040518363ffffffff167c010000000000000000000000000000000000000000000000000000000002815260040180836000191660001916815260200180602001828103825283818151815260200191508051906020019080838360005b8381101561145e578082015181840152602081019050611443565b50505050905090810190601f16801561148b5780820380516001836020036101000a031916815260200191505b50935050505060206040518083038186803b1580156114a957600080fd5b505af41580156114bd573d6000803e3d6000fd5b505050506040513d60208110156114d357600080fd5b810190808051906020019092919050505073ffffffffffffffffffffffffffffffffffffffff1660036000896000191660001916815260200190815260200160002060000160009054906101000a900473ffffffffffffffffffffffffffffffffffffffff1673ffffffffffffffffffffffffffffffffffffffff1614151561155b57600080fd5b73__ECTools_______________________________63dca9541982846040518363ffffffff167c010000000000000000000000000000000000000000000000000000000002815260040180836000191660001916815260200180602001828103825283818151815260200191508051906020019080838360005b838110156115f05780820151818401526020810190506115d5565b50505050905090810190601f16801561161d5780820380516001836020036101000a031916815260200191505b50935050505060206040518083038186803b15801561163b57600080fd5b505af415801561164f573d6000803e3d6000fd5b505050506040513d602081101561166557600080fd5b810190808051906020019092919050505073ffffffffffffffffffffffffffffffffffffffff1660036000896000191660001916815260200190815260200160002060010160009054906101000a900473ffffffffffffffffffffffffffffffffffffffff1673ffffffffffffffffffffffffffffffffffffffff161415156116ed57600080fd5b60036000886000191660001916815260200190815260200160002060000160009054906101000a900473ffffffffffffffffffffffffffffffffffffffff1673ffffffffffffffffffffffffffffffffffffffff166108fc869081150290604051600060405180830381858888f19350505050158015611771573d6000803e3d6000fd5b5060036000886000191660001916815260200190815260200160002060010160009054906101000a900473ffffffffffffffffffffffffffffffffffffffff1673ffffffffffffffffffffffffffffffffffffffff166108fc859081150290604051600060405180830381858888f193505050501580156117f6573d6000803e3d6000fd5b50600060036000896000191660001916815260200190815260200160002060090160006101000a81548160ff0219169083151502179055506001600081548092919060019003919050555086600019167fdd7bdb2058a8a82d09caffc5e510ecc0742535eb4c1dee30dc9e7ac979bc0bde8686604051808381526020018281526020019250505060405180910390a250505050505050565b600060026000896000191660001916815260200190815260200160002060000160009054906101000a900460ff16151515611931576040517f08c379a000000000000000000000000000000000000000000000000000000000815260040180806020018281038252600d8152602001807f564320697320636c6f7365642e0000000000000000000000000000000000000081525060200191505060405180910390fd5b86600260008a60001916600019168152602001908152602001600020600101541015156119ec576040517f08c379a000000000000000000000000000000000000000000000000000000000815260040180806020018281038252602b8152602001807f56432073657175656e636520697320686967686572207468616e20757064617481526020017f652073657175656e63652e00000000000000000000000000000000000000000081525060400191505060405180910390fd5b42600360008b6000191660001916815260200190815260200160002060080154101515611a1857600080fd5b87878773ffffffffffffffffffffffffffffffffffffffff166001028773ffffffffffffffffffffffffffffffffffffffff1660010287876040516020018087600019166000191681526020018681526020018560001916600019168152602001846000191660001916815260200183815260200182815260200196505050505050506040516020818303038152906040526040518082805190602001908083835b602083101515611adf5780518252602082019150602081019050602083039250611aba565b6001836020036101000a0380198251168184511680821785525050505050509050019150506040518091039020905073__ECTools_______________________________63dca9541982846040518363ffffffff167c010000000000000000000000000000000000000000000000000000000002815260040180836000191660001916815260200180602001828103825283818151815260200191508051906020019080838360005b83811015611ba3578082015181840152602081019050611b88565b50505050905090810190601f168015611bd05780820380516001836020036101000a031916815260200191505b50935050505060206040518083038186803b158015611bee57600080fd5b505af4158015611c02573d6000803e3d6000fd5b505050506040513d6020811015611c1857600080fd5b810190808051906020019092919050505073ffffffffffffffffffffffffffffffffffffffff16600260008a6000191660001916815260200190815260200160002060040160009054906101000a900473ffffffffffffffffffffffffffffffffffffffff1673ffffffffffffffffffffffffffffffffffffffff16141515611ca057600080fd5b33600260008a6000191660001916815260200190815260200160002060020160006101000a81548173ffffffffffffffffffffffffffffffffffffffff021916908373ffffffffffffffffffffffffffffffffffffffff16021790555086600260008a600019166000191681526020019081526020016000206001018190555083600260008a600019166000191681526020019081526020016000206007018190555082600260008a60001916600019168152602001908152602001600020600801819055506000544201600260008a60001916600019168152602001908152602001600020600301819055506001600260008a6000191660001916815260200190815260200160002060000160016101000a81548160ff021916908315150217905550876000191689600019167f14fdad3a0bdce03522a367ac4fba44b3fdb91134913ee9f29ec65db2d9b44e5d898989898933604051808781526020018673ffffffffffffffffffffffffffffffffffffffff1673ffffffffffffffffffffffffffffffffffffffff1681526020018573ffffffffffffffffffffffffffffffffffffffff1673ffffffffffffffffffffffffffffffffffffffff1681526020018481526020018381526020018273ffffffffffffffffffffffffffffffffffffffff1673ffffffffffffffffffffffffffffffffffffffff168152602001965050505050505060405180910390a3505050505050505050565b60015481565b6000600260008a6000191660001916815260200190815260200160002060000160009054906101000a900460ff16151515611f65576040517f08c379a000000000000000000000000000000000000000000000000000000000815260040180806020018281038252600d8152602001807f564320697320636c6f7365642e0000000000000000000000000000000000000081525060200191505060405180910390fd5b6000600260008b6000191660001916815260200190815260200160002060010154141515611ffb576040517f08c379a00000000000000000000000000000000000000000000000000000000081526004018080602001828103825260158152602001807f56432073657175656e6365206973206e6f7420302e000000000000000000000081525060200191505060405180910390fd5b42600360008c6000191660001916815260200190815260200160002060080154101515612090576040517f08c379a00000000000000000000000000000000000000000000000000000000081526004018080602001828103825260108152602001807f4c432074696d656f7574206f7665722e0000000000000000000000000000000081525060200191505060405180910390fd5b8887878787876040516020018087600019166000191681526020018681526020018573ffffffffffffffffffffffffffffffffffffffff1673ffffffffffffffffffffffffffffffffffffffff166c010000000000000000000000000281526014018473ffffffffffffffffffffffffffffffffffffffff1673ffffffffffffffffffffffffffffffffffffffff166c0100000000000000000000000002815260140183815260200182815260200196505050505050506040516020818303038152906040526040518082805190602001908083835b60208310151561218b5780518252602082019150602081019050602083039250612166565b6001836020036101000a0380198251168184511680821785525050505050509050019150506040518091039020905073__ECTools_______________________________63dca9541982846040518363ffffffff167c010000000000000000000000000000000000000000000000000000000002815260040180836000191660001916815260200180602001828103825283818151815260200191508051906020019080838360005b8381101561224f578082015181840152602081019050612234565b50505050905090810190601f16801561227c5780820380516001836020036101000a031916815260200191505b50935050505060206040518083038186803b15801561229a57600080fd5b505af41580156122ae573d6000803e3d6000fd5b505050506040513d60208110156122c457600080fd5b810190808051906020019092919050505073ffffffffffffffffffffffffffffffffffffffff168673ffffffffffffffffffffffffffffffffffffffff1614151561230e57600080fd5b6123378189600360008e6000191660001916815260200190815260200160002060060154613a6d565b151561234257600080fd5b85600260008b6000191660001916815260200190815260200160002060040160006101000a81548173ffffffffffffffffffffffffffffffffffffffff021916908373ffffffffffffffffffffffffffffffffffffffff16021790555084600260008b6000191660001916815260200190815260200160002060050160006101000a81548173ffffffffffffffffffffffffffffffffffffffff021916908373ffffffffffffffffffffffffffffffffffffffff16021790555086600260008b60001916600019168152602001908152602001600020600101819055506000544201600260008b600019166000191681526020019081526020016000206003018190555088600019168a600019167fcffb5a92cc488e2eed0a946d6ec257262e6d235c83295ebfbf4f11712330ca9a8a8a8a8a8a8a60405180806020018781526020018673ffffffffffffffffffffffffffffffffffffffff1673ffffffffffffffffffffffffffffffffffffffff1681526020018573ffffffffffffffffffffffffffffffffffffffff1673ffffffffffffffffffffffffffffffffffffffff168152602001848152602001838152602001828103825288818151815260200191508051906020019080838360005b8381101561252d578082015181840152602081019050612512565b50505050905090810190601f16801561255a5780820380516001836020036101000a031916815260200191505b5097505050505050505060405180910390a350505050505050505050565b60005481565b6040805190810160405280600e81526020017f4c6564676572204368616e6e656c00000000000000000000000000000000000081525081565b600087600360008b60001916600019168152602001908152602001600020600401541015156125e557600080fd5b6000888886600360008e6000191660001916815260200190815260200160002060000160009054906101000a900473ffffffffffffffffffffffffffffffffffffffff16600360008f6000191660001916815260200190815260200160002060010160009054906101000a900473ffffffffffffffffffffffffffffffffffffffff168b8b6040516020018089151515157f010000000000000000000000000000000000000000000000000000000000000002815260010188815260200187815260200186600019166000191681526020018573ffffffffffffffffffffffffffffffffffffffff1673ffffffffffffffffffffffffffffffffffffffff166c010000000000000000000000000281526014018473ffffffffffffffffffffffffffffffffffffffff1673ffffffffffffffffffffffffffffffffffffffff166c01000000000000000000000000028152601401838152602001828152602001985050505050505050506040516020818303038152906040526040518082805190602001908083835b602083101515612793578051825260208201915060208101905060208303925061276e565b6001836020036101000a0380198251168184511680821785525050505050509050019150506040518091039020905073__ECTools_______________________________63dca9541982856040518363ffffffff167c010000000000000000000000000000000000000000000000000000000002815260040180836000191660001916815260200180602001828103825283818151815260200191508051906020019080838360005b8381101561285757808201518184015260208101905061283c565b50505050905090810190601f1680156128845780820380516001836020036101000a031916815260200191505b50935050505060206040518083038186803b1580156128a257600080fd5b505af41580156128b6573d6000803e3d6000fd5b505050506040513d60208110156128cc57600080fd5b810190808051906020019092919050505073ffffffffffffffffffffffffffffffffffffffff16600360008b6000191660001916815260200190815260200160002060000160009054906101000a900473ffffffffffffffffffffffffffffffffffffffff1673ffffffffffffffffffffffffffffffffffffffff1614151561295457600080fd5b73__ECTools_______________________________63dca9541982846040518363ffffffff167c010000000000000000000000000000000000000000000000000000000002815260040180836000191660001916815260200180602001828103825283818151815260200191508051906020019080838360005b838110156129e95780820151818401526020810190506129ce565b50505050905090810190601f168015612a165780820380516001836020036101000a031916815260200191505b50935050505060206040518083038186803b158015612a3457600080fd5b505af4158015612a48573d6000803e3d6000fd5b505050506040513d6020811015612a5e57600080fd5b810190808051906020019092919050505073ffffffffffffffffffffffffffffffffffffffff16600360008b6000191660001916815260200190815260200160002060010160009054906101000a900473ffffffffffffffffffffffffffffffffffffffff1673ffffffffffffffffffffffffffffffffffffffff16141515612ae657600080fd5b87600360008b600019166000191681526020019081526020016000206004018190555086600360008b60001916600019168152602001908152602001600020600a018190555085600360008b600019166000191681526020019081526020016000206002018190555084600360008b600019166000191681526020019081526020016000206003018190555083600360008b6000191660001916815260200190815260200160002060060181600019169055506001600360008b6000191660001916815260200190815260200160002060090160016101000a81548160ff0219169083151502179055506000544201600360008b600019166000191681526020019081526020016000206008018190555088600019167f260a52f089d69e0b856a9c8afdd25b5a369f573ec4417f54c9345b1a2c42b24489898989896040518086815260200185815260200184815260200183815260200182600019166000191681526020019550505050505060405180910390a2505050505050505050565b866000191688600019167f14fdad3a0bdce03522a367ac4fba44b3fdb91134913ee9f29ec65db2d9b44e5d888888888888604051808781526020018673ffffffffffffffffffffffffffffffffffffffff1673ffffffffffffffffffffffffffffffffffffffff1681526020018573ffffffffffffffffffffffffffffffffffffffff1673ffffffffffffffffffffffffffffffffffffffff1681526020018481526020018381526020018273ffffffffffffffffffffffffffffffffffffffff1673ffffffffffffffffffffffffffffffffffffffff168152602001965050505050505060405180910390a35050505050505050565b6000151560036000836000191660001916815260200190815260200160002060090160009054906101000a900460ff161515141515612d9b57600080fd5b60036000826000191660001916815260200190815260200160002060010160009054906101000a900473ffffffffffffffffffffffffffffffffffffffff1673ffffffffffffffffffffffffffffffffffffffff163373ffffffffffffffffffffffffffffffffffffffff16141515612e1357600080fd5b3460036000836000191660001916815260200190815260200160002060030181905550600160036000836000191660001916815260200190815260200160002060090160006101000a81548160ff02191690831515021790555060016000815480929190600101919050555080600019167f196bcc18b8e4ce5e969796910301b87767ce277a789a28bf942745297f07faff346040518082815260200191505060405180910390a250565b6000806001151560036000856000191660001916815260200190815260200160002060090160019054906101000a900460ff161515141515612eff57600080fd5b6000600360008560001916600019168152602001908152602001600020600a0154141515612f2c57600080fd5b60036000846000191660001916815260200190815260200160002060020154915060036000846000191660001916815260200190815260200160002060030154905060006003600085600019166000191681526020019081526020016000206002018190555060006003600085600019166000191681526020019081526020016000206003018190555060036000846000191660001916815260200190815260200160002060000160009054906101000a900473ffffffffffffffffffffffffffffffffffffffff1673ffffffffffffffffffffffffffffffffffffffff166108fc839081150290604051600060405180830381858888f1935050505015801561303a573d6000803e3d6000fd5b5060036000846000191660001916815260200190815260200160002060010160009054906101000a900473ffffffffffffffffffffffffffffffffffffffff1673ffffffffffffffffffffffffffffffffffffffff166108fc829081150290604051600060405180830381858888f193505050501580156130bf573d6000803e3d6000fd5b50600060036000856000191660001916815260200190815260200160002060090160006101000a81548160ff0219169083151502179055506001600081548092919060019003919050555082600019167fdd7bdb2058a8a82d09caffc5e510ecc0742535eb4c1dee30dc9e7ac979bc0bde8383604051808381526020018281526020019250505060405180910390a2505050565b6001151560036000846000191660001916815260200190815260200160002060090160009054906101000a900460ff161515141515613220576040517f08c379a00000000000000000000000000000000000000000000000000000000081526004018080602001828103825260268152602001807f547269656420616464696e672066756e647320746f206120636c6f736564206381526020017f68616e6e656c000000000000000000000000000000000000000000000000000081525060400191505060405180910390fd5b60036000836000191660001916815260200190815260200160002060000160009054906101000a900473ffffffffffffffffffffffffffffffffffffffff1673ffffffffffffffffffffffffffffffffffffffff168173ffffffffffffffffffffffffffffffffffffffff161480613301575060036000836000191660001916815260200190815260200160002060010160009054906101000a900473ffffffffffffffffffffffffffffffffffffffff1673ffffffffffffffffffffffffffffffffffffffff168173ffffffffffffffffffffffffffffffffffffffff16145b151561330c57600080fd5b8073ffffffffffffffffffffffffffffffffffffffff1660036000846000191660001916815260200190815260200160002060000160009054906101000a900473ffffffffffffffffffffffffffffffffffffffff1673ffffffffffffffffffffffffffffffffffffffff1614156133ab5734600360008460001916600019168152602001908152602001600020600201600082825401925050819055505b8073ffffffffffffffffffffffffffffffffffffffff1660036000846000191660001916815260200190815260200160002060010160009054906101000a900473ffffffffffffffffffffffffffffffffffffffff1673ffffffffffffffffffffffffffffffffffffffff16141561344a5734600360008460001916600019168152602001908152602001600020600301600082825401925050819055505b8073ffffffffffffffffffffffffffffffffffffffff1682600019167f8c72346718d0a1cae9c1c91c251ea5b04e497ddd50fd8938842c4f2554171735346040518082815260200191505060405180910390a35050565b60036020528060005260406000206000915090508060000160009054906101000a900473ffffffffffffffffffffffffffffffffffffffff16908060010160009054906101000a900473ffffffffffffffffffffffffffffffffffffffff16908060020154908060030154908060040154908060050154908060060154908060070154908060080154908060090160009054906101000a900460ff16908060090160019054906101000a900460ff169080600a015490508c565b60026000826000191660001916815260200190815260200160002060000160019054906101000a900460ff1615156135fb576040517f08c379a000000000000000000000000000000000000000000000000000000000815260040180806020018281038252601e8152602001807f5643206973206e6f7420696e20736574746c656d656e742073746174652e000081525060200191505060405180910390fd5b42600260008360001916600019168152602001908152602001600020600301541015156136b6576040517f08c379a00000000000000000000000000000000000000000000000000000000081526004018080602001828103825260228152602001807f5570646174652076632074696d656f757420686173206e6f7420656c6170736581526020017f642e00000000000000000000000000000000000000000000000000000000000081525060400191505060405180910390fd5b600360008360001916600019168152602001908152602001600020600a01600081548092919060019003919050555060036000836000191660001916815260200190815260200160002060000160009054906101000a900473ffffffffffffffffffffffffffffffffffffffff1673ffffffffffffffffffffffffffffffffffffffff1660026000836000191660001916815260200190815260200160002060040160009054906101000a900473ffffffffffffffffffffffffffffffffffffffff1673ffffffffffffffffffffffffffffffffffffffff16141561382e5760026000826000191660001916815260200190815260200160002060070154600360008460001916600019168152602001908152602001600020600201600082825401925050819055506002600082600019166000191681526020019081526020016000206008015460036000846000191660001916815260200190815260200160002060030160008282540192505081905550613974565b60036000836000191660001916815260200190815260200160002060000160009054906101000a900473ffffffffffffffffffffffffffffffffffffffff1673ffffffffffffffffffffffffffffffffffffffff1660026000836000191660001916815260200190815260200160002060050160009054906101000a900473ffffffffffffffffffffffffffffffffffffffff1673ffffffffffffffffffffffffffffffffffffffff16141561397357600260008260001916600019168152602001908152602001600020600801546003600084600019166000191681526020019081526020016000206002016000828254019250508190555060026000826000191660001916815260200190815260200160002060070154600360008460001916600019168152602001908152602001600020600301600082825401925050819055505b5b600160026000836000191660001916815260200190815260200160002060000160006101000a81548160ff021916908315150217905550806000191682600019167f6ffd15c8707cc55ead84f4bd6e1a07360d2a825d7dacb1456403604948e7ebbf6002600085600019166000191681526020019081526020016000206007015460026000866000191660001916815260200190815260200160002060080154604051808381526020018281526020019250505060405180910390a35050565b6040805190810160405280600581526020017f302e302e3100000000000000000000000000000000000000000000000000000081525081565b600080600080869250604090505b855181111515613be457808601519150816000191683600019161015613b3c5782826040516020018083600019166000191681526020018260001916600019168152602001925050506040516020818303038152906040526040518082805190602001908083835b602083101515613b085780518252602082019150602081019050602083039250613ae3565b6001836020036101000a03801982511681845116808217855250505050505090500191505060405180910390209250613bd9565b81836040516020018083600019166000191681526020018260001916600019168152602001925050506040516020818303038152906040526040518082805190602001908083835b602083101515613ba95780518252602082019150602081019050602083039250613b84565b6001836020036101000a038019825116818451168082178552505050505050905001915050604051809103902092505b602081019050613a7b565b8460001916836000191614935050505093925050505600a165627a7a72305820b4d59950ebd018b0b7f72ff61cfc91e68811aaa1f3c49fe39bb8492ebcef6b870029",
  "source": "pragma solidity ^0.4.23;\nimport \"./ECTools.sol\";\n\n\n/// @title Set Virtual Channels - A layer2 hub and spoke payment network\n/// @author Nathan Ginnever\ncontract LedgerChannel {\n    string public constant NAME = \"Ledger Channel\";\n    string public constant VERSION = \"0.0.1\";\n    // timeout storage\n    uint256 public confirmTime = 0 minutes;\n    uint256 public numChannels = 0;\n\n    event DidLCOpen (\n        bytes32 indexed channelId,\n        address indexed partyA,\n        address indexed partyI,\n        uint256 balanceA\n    );\n\n    event DidLCJoin (\n        bytes32 indexed channelId,\n        uint256 balanceI\n    );\n\n    event DidLCDeposit (\n        bytes32 indexed channelId,\n        address indexed recipient,\n        uint256 deposit\n    );\n\n    event DidLCUpdateState (\n        bytes32 indexed channelId,\n        uint256 sequence,\n        uint256 numOpenVc,\n        uint256 balanceA,\n        uint256 balanceI,\n        bytes32 vcRoot\n    );\n\n    event DidLCClose (\n        bytes32 indexed channelId,\n        uint256 balanceA,\n        uint256 balanceI\n    );\n\n    event DidVCInit (\n        bytes32 indexed lcId,\n        bytes32 indexed vcId,\n        bytes proof,\n        uint256 sequence,\n        address partyA,\n        address partyB,\n        uint256 balanceA,\n        uint256 balanceB\n    );\n\n    event DidVCSettle (\n        bytes32 indexed lcId,\n        bytes32 indexed vcId,\n        uint256 updateSeq,\n        address partyA,\n        address partyB,\n        uint256 updateBalA,\n        uint256 updateBalB,\n        address challenger\n    );\n\n    event DidVCClose(\n        bytes32 indexed lcId,\n        bytes32 indexed vcId,\n        uint256 balanceA,\n        uint256 balanceB\n    );\n\n    struct Channel {\n        address partyA;\n        address partyI;\n        uint256 balanceA;\n        uint256 balanceI;\n        uint256 sequence;\n        bytes32 stateHash;\n        bytes32 VCrootHash;\n        uint256 LCopenTimeout;\n        uint256 updateLCtimeout; // when update LC times out\n        bool isOpen; // true when both parties have joined\n        bool isUpdateLCSettling;\n        uint256 numOpenVC;\n        //address closingParty;\n    }\n\n    // virtual-channel state\n    struct VirtualChannel {\n        bool isClose;\n        bool isInSettlementState;\n        uint256 sequence;\n        address challenger; // Initiator of challenge\n        uint256 updateVCtimeout; // when update VC times out\n        // channel state\n        address partyA; // VC participant A\n        address partyB; // VC participant B\n        address partyI; // LC hub\n        uint256 balanceA;\n        uint256 balanceB;\n        //uint256 balanceI;\n    }\n\n    mapping(bytes32 => VirtualChannel) public virtualChannels;\n    mapping(bytes32 => Channel) public Channels;\n\n    function createChannel(bytes32 _lcID, address _partyI) public payable {\n        require(_partyI != 0x0, \"No partyI address provided to LC creation\");\n        require(Channels[_lcID].isOpen == false, \"Channel already open\");\n        require(Channels[_lcID].sequence == 0, \"Channel has already been used\");\n        // Set initial ledger channel state\n        // Alice must execute this and we assume the initial state\n        // to be signed from this requirement\n        // Alternative is to check a sig as in joinChannel\n        Channels[_lcID].partyA = msg.sender;\n        Channels[_lcID].partyI = _partyI;\n        Channels[_lcID].balanceA = msg.value;\n        Channels[_lcID].sequence = 0;\n        // is close flag, lc state sequence, number open vc, vc root hash, partyA...\n        //Channels[_lcID].stateHash = keccak256(uint256(0), uint256(0), uint256(0), bytes32(0x0), bytes32(msg.sender), bytes32(_partyI), balanceA, balanceI);\n        Channels[_lcID].LCopenTimeout = now + confirmTime;\n        emit DidLCOpen(_lcID, msg.sender, _partyI, msg.value);\n    }\n\n    function LCOpenTimeout(bytes32 _lcID) public {\n        require(msg.sender == Channels[_lcID].partyA && Channels[_lcID].isOpen == false);\n        if (now > Channels[_lcID].LCopenTimeout) {\n            Channels[_lcID].partyA.transfer(Channels[_lcID].balanceA);\n            // only safe to delete since no action was taken on this channel\n            delete Channels[_lcID];\n            emit DidLCClose(_lcID, Channels[_lcID].balanceA, 0);\n        }\n    }\n\n    function joinChannel(bytes32 _lcID) public payable {\n        // require the channel is not open yet\n        require(Channels[_lcID].isOpen == false);\n        require(msg.sender == Channels[_lcID].partyI);\n        // Initial state\n        //address recover = ECTools.recoverSigner(Channels[_lcID].stateHash, _sigI);\n        Channels[_lcID].balanceI = msg.value;\n        // no longer allow joining functions to be called\n        Channels[_lcID].isOpen = true;\n        numChannels++;\n        emit DidLCJoin(_lcID, msg.value);\n    }\n\n    // additive updates of monetary state\n    function deposit(bytes32 _lcID, address recipient) public payable {\n        require(Channels[_lcID].isOpen == true, \"Tried adding funds to a closed channel\");\n        require(recipient == Channels[_lcID].partyA || recipient == Channels[_lcID].partyI);\n        if (Channels[_lcID].partyA == recipient) { Channels[_lcID].balanceA += msg.value; }\n        if (Channels[_lcID].partyI == recipient) { Channels[_lcID].balanceI += msg.value; }\n\n        emit DidLCDeposit(_lcID, recipient, msg.value);\n    }\n\n    // TODO: Check there are no open virtual channels, the client should have cought this before signing a close LC state update\n    function consensusCloseChannel(\n        bytes32 _lcID,\n        uint256 _sequence,\n        uint256 _balanceA,\n        uint256 _balanceI,\n        string _sigA,\n        string _sigI\n    )\n        public\n    {\n        // assume num open vc is 0 and root hash is 0x0\n        require(Channels[_lcID].sequence < _sequence);\n        bytes32 _state = keccak256(\n            abi.encodePacked(\n                true,\n                _sequence,\n                uint256(0),\n                bytes32(0x0),\n                Channels[_lcID].partyA,\n                Channels[_lcID].partyI,\n                _balanceA,\n                _balanceI\n            )\n        );\n        require(Channels[_lcID].partyA == ECTools.recoverSigner(_state, _sigA));\n        require(Channels[_lcID].partyI == ECTools.recoverSigner(_state, _sigI));\n        Channels[_lcID].partyA.transfer(_balanceA);\n        Channels[_lcID].partyI.transfer(_balanceI);\n        Channels[_lcID].isOpen = false;\n        numChannels--;\n        emit DidLCClose(_lcID, _balanceA, _balanceI);\n    }\n\n    // Byzantine functions\n    function updateLCstate(\n        bytes32 _lcID,\n        uint256 _sequence,\n        uint256 _numOpenVc,\n        uint256 _balanceA,\n        uint256 _balanceI,\n        bytes32 _VCroot,\n        string _sigA,\n        string _sigI\n    )\n        public\n    {\n        require(Channels[_lcID].sequence < _sequence); // do same as vc sequence check\n        bytes32 _state = keccak256(\n            abi.encodePacked(\n                false,\n                _sequence,\n                _numOpenVc,\n                _VCroot,\n                Channels[_lcID].partyA,\n                Channels[_lcID].partyI,\n                _balanceA,\n                _balanceI\n            )\n        );\n        require(Channels[_lcID].partyA == ECTools.recoverSigner(_state, _sigA));\n        require(Channels[_lcID].partyI == ECTools.recoverSigner(_state, _sigI));\n        // update LC state\n        Channels[_lcID].sequence = _sequence;\n        Channels[_lcID].numOpenVC = _numOpenVc;\n        Channels[_lcID].balanceA = _balanceA;\n        Channels[_lcID].balanceI = _balanceI;\n        Channels[_lcID].VCrootHash = _VCroot;\n        Channels[_lcID].isUpdateLCSettling = true;\n        Channels[_lcID].updateLCtimeout = now + confirmTime;\n        // make settlement flag\n        emit DidLCUpdateState (\n            _lcID,\n            _sequence,\n            _numOpenVc,\n            _balanceA,\n            _balanceI,\n            _VCroot\n        );\n    }\n\n    function initVCstate(\n        bytes32 _lcID,\n        bytes32 _vcID,\n        bytes _proof,\n        uint256 _sequence,\n        address _partyA,\n        address _partyB,\n        uint256 _balanceA,\n        uint256 _balanceB,\n        string sigA\n    )\n        public\n    {\n        // sub-channel must be open\n        require(!virtualChannels[_vcID].isClose, \"VC is closed.\");\n        require(virtualChannels[_vcID].sequence == 0, \"VC sequence is not 0.\");\n        // Check time has passed on updateLCtimeout and has not passed the time to store a vc state\n        require(Channels[_lcID].updateLCtimeout < now, \"LC timeout over.\");\n        // partyB is now Ingrid\n        bytes32 _initState = keccak256(\n            abi.encodePacked(_vcID, _sequence, _partyA, _partyB, _balanceA, _balanceB)\n        );\n        // Make sure Alice has signed initial vc state (A/B in oldState)\n        require(_partyA == ECTools.recoverSigner(_initState, sigA));\n        //require(_partyB == ECTools.recoverSigner(_initState, sigB));\n        // Check the oldState is in the root hash\n        require(_isContained(_initState, _proof, Channels[_lcID].VCrootHash));\n        virtualChannels[_vcID].partyA = _partyA; // VC participant A\n        virtualChannels[_vcID].partyB = _partyB; // VC participant B\n        virtualChannels[_vcID].sequence = _sequence;\n        virtualChannels[_vcID].updateVCtimeout = now + confirmTime;\n        emit DidVCInit(_lcID, _vcID, _proof, _sequence, _partyA, _partyB, _balanceA, _balanceB);\n    }\n\n    // Params: vc init state, vc final balance, vcID\n    function settleVC(\n        bytes32 _lcID,\n        bytes32 _vcID,\n        uint256 updateSeq,\n        address _partyA,\n        address _partyB,\n        uint256 updateBalA,\n        uint256 updateBalB,\n        string sigA\n    )\n        public\n    {\n        // sub-channel must be open\n        require(!virtualChannels[_vcID].isClose, \"VC is closed.\");\n        require(virtualChannels[_vcID].sequence < updateSeq, \"VC sequence is higher than update sequence.\");\n        // Check time has passed on updateLCtimeout and has not passed the time to store a vc state\n        //require(Channels[_lcID].updateLCtimeout < now && now < virtualChannels[_vcID].updateVCtimeout);\n        require(Channels[_lcID].updateLCtimeout < now); // for testing!\n        bytes32 _updateState = keccak256(\n            abi.encodePacked(_vcID, updateSeq, bytes32(_partyA), bytes32(_partyB), updateBalA, updateBalB)\n        );\n        // Make sure Alice has signed a higher sequence new state\n        require(virtualChannels[_vcID].partyA == ECTools.recoverSigner(_updateState, sigA));\n        //require(virtualChannels[_vcID].partyB == ECTools.recoverSigner(_upateState, sigB));\n        // store VC data\n        // we may want to record who is initiating on-chain settles\n        virtualChannels[_vcID].challenger = msg.sender;\n        virtualChannels[_vcID].sequence = updateSeq;\n        // channel state\n        virtualChannels[_vcID].balanceA = updateBalA;\n        virtualChannels[_vcID].balanceB = updateBalB;\n        virtualChannels[_vcID].updateVCtimeout = now + confirmTime;\n        virtualChannels[_vcID].isInSettlementState = true;\n        emit DidVCSettle(_lcID, _vcID, updateSeq, _partyA, _partyB, updateBalA, updateBalB, msg.sender);\n    }\n\n    function closeVirtualChannel(bytes32 _lcID, bytes32 _vcID) public {\n        // require(updateLCtimeout > now)\n        require(virtualChannels[_vcID].isInSettlementState, \"VC is not in settlement state.\");\n        require(virtualChannels[_vcID].updateVCtimeout < now, \"Update vc timeout has not elapsed.\");\n        // reduce the number of open virtual channels stored on LC\n        Channels[_lcID].numOpenVC--;\n        // re-introduce the balances back into the LC state from the settled VC\n        // decide if this lc is alice or bob in the vc\n        if (virtualChannels[_vcID].partyA == Channels[_lcID].partyA) {\n            Channels[_lcID].balanceA += virtualChannels[_vcID].balanceA;\n            Channels[_lcID].balanceI += virtualChannels[_vcID].balanceB;\n        } else if (virtualChannels[_vcID].partyB == Channels[_lcID].partyA) {\n            Channels[_lcID].balanceA += virtualChannels[_vcID].balanceB;\n            Channels[_lcID].balanceI += virtualChannels[_vcID].balanceA;\n        }\n        // close vc flags\n        virtualChannels[_vcID].isClose = true;\n        emit DidVCClose(_lcID, _vcID, virtualChannels[_vcID].balanceA, virtualChannels[_vcID].balanceB);\n    }\n\n    function byzantineCloseChannel(bytes32 _lcID) public {\n        // check settlement flag\n        require(Channels[_lcID].isUpdateLCSettling == true);\n        require(Channels[_lcID].numOpenVC == 0);\n        // reentrancy\n        uint256 balanceA = Channels[_lcID].balanceA;\n        uint256 balanceI = Channels[_lcID].balanceI;\n        Channels[_lcID].balanceA = 0;\n        Channels[_lcID].balanceI = 0;\n        Channels[_lcID].partyA.transfer(balanceA);\n        Channels[_lcID].partyI.transfer(balanceI);\n        Channels[_lcID].isOpen = false;\n        numChannels--;\n        emit DidLCClose(_lcID, balanceA, balanceI);\n    }\n\n    function testEvents(\n        bytes32 lcId,\n        bytes32 vcId,\n        uint256 updateSeq,\n        address partyA,\n        address partyB,\n        uint256 updateBalA,\n        uint256 updateBalB,\n        address challenger\n    ) public {\n        emit DidVCSettle(\n            lcId,\n            vcId,\n            updateSeq,\n            partyA,\n            partyB,\n            updateBalA,\n            updateBalB,\n            challenger\n        );\n    }\n\n    function _isContained(bytes32 _hash, bytes _proof, bytes32 _root) internal pure returns (bool) {\n        bytes32 cursor = _hash;\n        bytes32 proofElem;\n        for (uint256 i = 64; i <= _proof.length; i += 32) {\n            assembly { proofElem := mload(add(_proof, i)) }\n            if (cursor < proofElem) {\n                cursor = keccak256(abi.encodePacked(cursor, proofElem));\n            } else {\n                cursor = keccak256(abi.encodePacked(proofElem, cursor));\n            }\n        }\n        return cursor == _root;\n    }\n}\n",
  "sourcePath": "/Users/eli/Dropbox/Baylands/connext-watcher/contracts/LedgerChannel.sol",
  "compiler": {
    "name": "solc",
    "version": "0.4.23+commit.124ca40d.Emscripten.clang"
  },
  "schemaVersion": "1.0.1",
  "updatedAt": "2018-07-25T21:43:56.046Z"
}